{
  "_format": "hh-sol-artifact-1",
  "contractName": "PeopleCoin",
  "sourceName": "contracts/PeopleCoin.sol",
  "abi": [
    {
      "inputs": [
        {
          "internalType": "address",
          "name": "trustedForwarder",
          "type": "address"
        }
      ],
      "stateMutability": "nonpayable",
      "type": "constructor"
    },
    {
      "inputs": [
        {
          "internalType": "uint256",
          "name": "value",
          "type": "uint256"
        }
      ],
      "name": "ERC20ExceedMaxCap",
      "type": "error"
    },
    {
      "inputs": [
        {
          "internalType": "address",
          "name": "spender",
          "type": "address"
        },
        {
          "internalType": "uint256",
          "name": "allowance",
          "type": "uint256"
        },
        {
          "internalType": "uint256",
          "name": "needed",
          "type": "uint256"
        }
      ],
      "name": "ERC20InsufficientAllowance",
      "type": "error"
    },
    {
      "inputs": [
        {
          "internalType": "address",
          "name": "sender",
          "type": "address"
        },
        {
          "internalType": "uint256",
          "name": "balance",
          "type": "uint256"
        },
        {
          "internalType": "uint256",
          "name": "needed",
          "type": "uint256"
        }
      ],
      "name": "ERC20InsufficientBalance",
      "type": "error"
    },
    {
      "inputs": [
        {
          "internalType": "address",
          "name": "approver",
          "type": "address"
        }
      ],
      "name": "ERC20InvalidApprover",
      "type": "error"
    },
    {
      "inputs": [
        {
          "internalType": "address",
          "name": "receiver",
          "type": "address"
        }
      ],
      "name": "ERC20InvalidReceiver",
      "type": "error"
    },
    {
      "inputs": [
        {
          "internalType": "address",
          "name": "sender",
          "type": "address"
        }
      ],
      "name": "ERC20InvalidSender",
      "type": "error"
    },
    {
      "inputs": [
        {
          "internalType": "address",
          "name": "spender",
          "type": "address"
        }
      ],
      "name": "ERC20InvalidSpender",
      "type": "error"
    },
    {
      "inputs": [
        {
          "internalType": "address",
          "name": "sender",
          "type": "address"
        },
        {
          "internalType": "uint256",
          "name": "value",
          "type": "uint256"
        }
      ],
      "name": "ERC20SenderNotEnoughBalance",
      "type": "error"
    },
    {
      "inputs": [
        {
          "internalType": "address",
          "name": "owner",
          "type": "address"
        }
      ],
      "name": "OwnableInvalidOwner",
      "type": "error"
    },
    {
      "inputs": [
        {
          "internalType": "address",
          "name": "account",
          "type": "address"
        }
      ],
      "name": "OwnableUnauthorizedAccount",
      "type": "error"
    },
    {
      "anonymous": false,
      "inputs": [
        {
          "indexed": true,
          "internalType": "address",
          "name": "owner",
          "type": "address"
        },
        {
          "indexed": true,
          "internalType": "address",
          "name": "spender",
          "type": "address"
        },
        {
          "indexed": false,
          "internalType": "uint256",
          "name": "value",
          "type": "uint256"
        }
      ],
      "name": "Approval",
      "type": "event"
    },
    {
      "anonymous": false,
      "inputs": [
        {
          "indexed": true,
          "internalType": "address",
          "name": "previousOwner",
          "type": "address"
        },
        {
          "indexed": true,
          "internalType": "address",
          "name": "newOwner",
          "type": "address"
        }
      ],
      "name": "OwnershipTransferred",
      "type": "event"
    },
    {
      "anonymous": false,
      "inputs": [
        {
          "indexed": true,
          "internalType": "address",
          "name": "from",
          "type": "address"
        },
        {
          "indexed": true,
          "internalType": "address",
          "name": "to",
          "type": "address"
        },
        {
          "indexed": false,
          "internalType": "uint256",
          "name": "value",
          "type": "uint256"
        }
      ],
      "name": "Transfer",
      "type": "event"
    },
    {
      "inputs": [
        {
          "internalType": "address",
          "name": "owner",
          "type": "address"
        },
        {
          "internalType": "address",
          "name": "spender",
          "type": "address"
        }
      ],
      "name": "allowance",
      "outputs": [
        {
          "internalType": "uint256",
          "name": "",
          "type": "uint256"
        }
      ],
      "stateMutability": "view",
      "type": "function"
    },
    {
      "inputs": [
        {
          "internalType": "address",
          "name": "spender",
          "type": "address"
        },
        {
          "internalType": "uint256",
          "name": "value",
          "type": "uint256"
        }
      ],
      "name": "approve",
      "outputs": [
        {
          "internalType": "bool",
          "name": "",
          "type": "bool"
        }
      ],
      "stateMutability": "nonpayable",
      "type": "function"
    },
    {
      "inputs": [
        {
          "internalType": "address",
          "name": "account",
          "type": "address"
        }
      ],
      "name": "balanceOf",
      "outputs": [
        {
          "internalType": "uint256",
          "name": "",
          "type": "uint256"
        }
      ],
      "stateMutability": "view",
      "type": "function"
    },
    {
      "inputs": [
        {
          "internalType": "uint256",
          "name": "value",
          "type": "uint256"
        }
      ],
      "name": "burn",
      "outputs": [],
      "stateMutability": "nonpayable",
      "type": "function"
    },
    {
      "inputs": [
        {
          "internalType": "address",
          "name": "account",
          "type": "address"
        },
        {
          "internalType": "uint256",
          "name": "value",
          "type": "uint256"
        }
      ],
      "name": "burnFrom",
      "outputs": [],
      "stateMutability": "nonpayable",
      "type": "function"
    },
    {
      "inputs": [],
      "name": "decimals",
      "outputs": [
        {
          "internalType": "uint8",
          "name": "",
          "type": "uint8"
        }
      ],
      "stateMutability": "view",
      "type": "function"
    },
    {
      "inputs": [
        {
          "internalType": "address",
          "name": "forwarder",
          "type": "address"
        }
      ],
      "name": "isTrustedForwarder",
      "outputs": [
        {
          "internalType": "bool",
          "name": "",
          "type": "bool"
        }
      ],
      "stateMutability": "view",
      "type": "function"
    },
    {
      "inputs": [],
      "name": "maxcap",
      "outputs": [
        {
          "internalType": "uint256",
          "name": "",
          "type": "uint256"
        }
      ],
      "stateMutability": "view",
      "type": "function"
    },
    {
      "inputs": [
        {
          "internalType": "address",
          "name": "to",
          "type": "address"
        },
        {
          "internalType": "uint256",
          "name": "amount",
          "type": "uint256"
        }
      ],
      "name": "mint",
      "outputs": [],
      "stateMutability": "nonpayable",
      "type": "function"
    },
    {
      "inputs": [],
      "name": "name",
      "outputs": [
        {
          "internalType": "string",
          "name": "",
          "type": "string"
        }
      ],
      "stateMutability": "view",
      "type": "function"
    },
    {
      "inputs": [],
      "name": "owner",
      "outputs": [
        {
          "internalType": "address",
          "name": "",
          "type": "address"
        }
      ],
      "stateMutability": "view",
      "type": "function"
    },
    {
      "inputs": [],
      "name": "renounceOwnership",
      "outputs": [],
      "stateMutability": "nonpayable",
      "type": "function"
    },
    {
      "inputs": [],
      "name": "symbol",
      "outputs": [
        {
          "internalType": "string",
          "name": "",
          "type": "string"
        }
      ],
      "stateMutability": "view",
      "type": "function"
    },
    {
      "inputs": [],
      "name": "totalSupply",
      "outputs": [
        {
          "internalType": "uint256",
          "name": "",
          "type": "uint256"
        }
      ],
      "stateMutability": "view",
      "type": "function"
    },
    {
      "inputs": [
        {
          "internalType": "address",
          "name": "to",
          "type": "address"
        },
        {
          "internalType": "uint256",
          "name": "value",
          "type": "uint256"
        }
      ],
      "name": "transfer",
      "outputs": [
        {
          "internalType": "bool",
          "name": "",
          "type": "bool"
        }
      ],
      "stateMutability": "nonpayable",
      "type": "function"
    },
    {
      "inputs": [
        {
          "internalType": "address",
          "name": "from",
          "type": "address"
        },
        {
          "internalType": "address",
          "name": "to",
          "type": "address"
        },
        {
          "internalType": "uint256",
          "name": "value",
          "type": "uint256"
        }
      ],
      "name": "transferFrom",
      "outputs": [
        {
          "internalType": "bool",
          "name": "",
          "type": "bool"
        }
      ],
      "stateMutability": "nonpayable",
      "type": "function"
    },
    {
      "inputs": [
        {
          "internalType": "address",
          "name": "newOwner",
          "type": "address"
        }
      ],
      "name": "transferOwnership",
      "outputs": [],
      "stateMutability": "nonpayable",
      "type": "function"
    },
    {
      "inputs": [],
      "name": "trustedForwarder",
      "outputs": [
        {
          "internalType": "address",
          "name": "",
          "type": "address"
        }
      ],
      "stateMutability": "view",
      "type": "function"
    }
  ],
  "bytecode": "0x60c06040523480156200001157600080fd5b506040516200232b3803806200232b8339818101604052810190620000379190620005f7565b80336040518060400160405280600b81526020017f50656f706c6520436f696e0000000000000000000000000000000000000000008152506040518060400160405280600481526020017f50504342000000000000000000000000000000000000000000000000000000008152508160039081620000b69190620008a3565b508060049081620000c89190620008a3565b505050600073ffffffffffffffffffffffffffffffffffffffff168173ffffffffffffffffffffffffffffffffffffffff1603620001405760006040517f1e4fbdf70000000000000000000000000000000000000000000000000000000081526004016200013791906200099b565b60405180910390fd5b6200015181620001e060201b60201c565b508073ffffffffffffffffffffffffffffffffffffffff1660808173ffffffffffffffffffffffffffffffffffffffff16815250505060006012600a62000199919062000b3b565b905080640ba43b7400620001ae919062000b8c565b60a08181525050620001d8620001c9620002a660201b60201c565b60a051620002d060201b60201c565b505062000c7d565b6000600560009054906101000a900473ffffffffffffffffffffffffffffffffffffffff16905081600560006101000a81548173ffffffffffffffffffffffffffffffffffffffff021916908373ffffffffffffffffffffffffffffffffffffffff1602179055508173ffffffffffffffffffffffffffffffffffffffff168173ffffffffffffffffffffffffffffffffffffffff167f8be0079c531659141344cd1fd0a4f28419497f9722a3daafe3b4186f6b6457e060405160405180910390a35050565b6000600560009054906101000a900473ffffffffffffffffffffffffffffffffffffffff16905090565b600073ffffffffffffffffffffffffffffffffffffffff168273ffffffffffffffffffffffffffffffffffffffff1603620003455760006040517fec442f050000000000000000000000000000000000000000000000000000000081526004016200033c91906200099b565b60405180910390fd5b62000359600083836200035d60201b60201c565b5050565b600073ffffffffffffffffffffffffffffffffffffffff168373ffffffffffffffffffffffffffffffffffffffff1603620003b3578060026000828254620003a6919062000bd7565b9250508190555062000489565b60008060008573ffffffffffffffffffffffffffffffffffffffff1673ffffffffffffffffffffffffffffffffffffffff1681526020019081526020016000205490508181101562000442578381836040517fe450d38c000000000000000000000000000000000000000000000000000000008152600401620004399392919062000c23565b60405180910390fd5b8181036000808673ffffffffffffffffffffffffffffffffffffffff1673ffffffffffffffffffffffffffffffffffffffff16815260200190815260200160002081905550505b600073ffffffffffffffffffffffffffffffffffffffff168273ffffffffffffffffffffffffffffffffffffffff1603620004d4578060026000828254039250508190555062000521565b806000808473ffffffffffffffffffffffffffffffffffffffff1673ffffffffffffffffffffffffffffffffffffffff168152602001908152602001600020600082825401925050819055505b8173ffffffffffffffffffffffffffffffffffffffff168373ffffffffffffffffffffffffffffffffffffffff167fddf252ad1be2c89b69c2b068fc378daa952ba7f163c4a11628f55a4df523b3ef8360405162000580919062000c60565b60405180910390a3505050565b600080fd5b600073ffffffffffffffffffffffffffffffffffffffff82169050919050565b6000620005bf8262000592565b9050919050565b620005d181620005b2565b8114620005dd57600080fd5b50565b600081519050620005f181620005c6565b92915050565b60006020828403121562000610576200060f6200058d565b5b60006200062084828501620005e0565b91505092915050565b600081519050919050565b7f4e487b7100000000000000000000000000000000000000000000000000000000600052604160045260246000fd5b7f4e487b7100000000000000000000000000000000000000000000000000000000600052602260045260246000fd5b60006002820490506001821680620006ab57607f821691505b602082108103620006c157620006c062000663565b5b50919050565b60008190508160005260206000209050919050565b60006020601f8301049050919050565b600082821b905092915050565b6000600883026200072b7fffffffffffffffffffffffffffffffffffffffffffffffffffffffffffffffff82620006ec565b620007378683620006ec565b95508019841693508086168417925050509392505050565b6000819050919050565b6000819050919050565b6000620007846200077e62000778846200074f565b62000759565b6200074f565b9050919050565b6000819050919050565b620007a08362000763565b620007b8620007af826200078b565b848454620006f9565b825550505050565b600090565b620007cf620007c0565b620007dc81848462000795565b505050565b5b818110156200080457620007f8600082620007c5565b600181019050620007e2565b5050565b601f82111562000853576200081d81620006c7565b6200082884620006dc565b8101602085101562000838578190505b620008506200084785620006dc565b830182620007e1565b50505b505050565b600082821c905092915050565b6000620008786000198460080262000858565b1980831691505092915050565b600062000893838362000865565b9150826002028217905092915050565b620008ae8262000629565b67ffffffffffffffff811115620008ca57620008c962000634565b5b620008d6825462000692565b620008e382828562000808565b600060209050601f8311600181146200091b576000841562000906578287015190505b62000912858262000885565b86555062000982565b601f1984166200092b86620006c7565b60005b8281101562000955578489015182556001820191506020850194506020810190506200092e565b8683101562000975578489015162000971601f89168262000865565b8355505b6001600288020188555050505b505050505050565b6200099581620005b2565b82525050565b6000602082019050620009b260008301846200098a565b92915050565b7f4e487b7100000000000000000000000000000000000000000000000000000000600052601160045260246000fd5b60008160011c9050919050565b6000808291508390505b600185111562000a465780860481111562000a1e5762000a1d620009b8565b5b600185161562000a2e5780820291505b808102905062000a3e85620009e7565b9450620009fe565b94509492505050565b60008262000a61576001905062000b34565b8162000a71576000905062000b34565b816001811462000a8a576002811462000a955762000acb565b600191505062000b34565b60ff84111562000aaa5762000aa9620009b8565b5b8360020a91508482111562000ac45762000ac3620009b8565b5b5062000b34565b5060208310610133831016604e8410600b841016171562000b055782820a90508381111562000aff5762000afe620009b8565b5b62000b34565b62000b148484846001620009f4565b9250905081840481111562000b2e5762000b2d620009b8565b5b81810290505b9392505050565b600062000b48826200074f565b915062000b55836200074f565b925062000b847fffffffffffffffffffffffffffffffffffffffffffffffffffffffffffffffff848462000a4f565b905092915050565b600062000b99826200074f565b915062000ba6836200074f565b925082820262000bb6816200074f565b9150828204841483151762000bd05762000bcf620009b8565b5b5092915050565b600062000be4826200074f565b915062000bf1836200074f565b925082820190508082111562000c0c5762000c0b620009b8565b5b92915050565b62000c1d816200074f565b82525050565b600060608201905062000c3a60008301866200098a565b62000c49602083018562000c12565b62000c58604083018462000c12565b949350505050565b600060208201905062000c77600083018462000c12565b92915050565b60805160a05161168162000caa6000396000818161048801526105210152600061060201526116816000f3fe608060405234801561001057600080fd5b50600436106101165760003560e01c806370a08231116100a25780638da5cb5b116100715780638da5cb5b146102cf57806395d89b41146102ed578063a9059cbb1461030b578063dd62ed3e1461033b578063f2fde38b1461036b57610116565b806370a082311461025b578063715018a61461028b57806379cc6790146102955780637da0a877146102b157610116565b8063313ce567116100e9578063313ce567146101b757806340c10f19146101d557806342966c68146101f157806355456f581461020d578063572b6c051461022b57610116565b806306fdde031461011b578063095ea7b31461013957806318160ddd1461016957806323b872dd14610187575b600080fd5b610123610387565b604051610130919061118c565b60405180910390f35b610153600480360381019061014e9190611247565b610419565b60405161016091906112a2565b60405180910390f35b61017161043c565b60405161017e91906112cc565b60405180910390f35b6101a1600480360381019061019c91906112e7565b610446565b6040516101ae91906112a2565b60405180910390f35b6101bf610475565b6040516101cc9190611356565b60405180910390f35b6101ef60048036038101906101ea9190611247565b61047e565b005b61020b60048036038101906102069190611371565b61050b565b005b61021561051f565b60405161022291906112cc565b60405180910390f35b6102456004803603810190610240919061139e565b610543565b60405161025291906112a2565b60405180910390f35b6102756004803603810190610270919061139e565b610582565b60405161028291906112cc565b60405180910390f35b6102936105ca565b005b6102af60048036038101906102aa9190611247565b6105de565b005b6102b96105fe565b6040516102c691906113da565b60405180910390f35b6102d7610626565b6040516102e491906113da565b60405180910390f35b6102f5610650565b604051610302919061118c565b60405180910390f35b61032560048036038101906103209190611247565b6106e2565b60405161033291906112a2565b60405180910390f35b610355600480360381019061035091906113f5565b610764565b60405161036291906112cc565b60405180910390f35b6103856004803603810190610380919061139e565b6107eb565b005b60606003805461039690611464565b80601f01602080910402602001604051908101604052809291908181526020018280546103c290611464565b801561040f5780601f106103e45761010080835404028352916020019161040f565b820191906000526020600020905b8154815290600101906020018083116103f257829003601f168201915b5050505050905090565b600080610424610871565b9050610431818585610880565b600191505092915050565b6000600254905090565b600080610451610871565b905061045e858285610892565b610469858585610926565b60019150509392505050565b60006012905090565b610486610a1a565b7f0000000000000000000000000000000000000000000000000000000000000000816104b061043c565b6104ba91906114c4565b11156104fd57806040517f7b49628b0000000000000000000000000000000000000000000000000000000081526004016104f491906112cc565b60405180910390fd5b6105078282610aa1565b5050565b61051c610516610871565b82610b23565b50565b7f000000000000000000000000000000000000000000000000000000000000000081565b600061054d6105fe565b73ffffffffffffffffffffffffffffffffffffffff168273ffffffffffffffffffffffffffffffffffffffff16149050919050565b60008060008373ffffffffffffffffffffffffffffffffffffffff1673ffffffffffffffffffffffffffffffffffffffff168152602001908152602001600020549050919050565b6105d2610a1a565b6105dc6000610ba5565b565b6105f0826105ea610871565b83610892565b6105fa8282610b23565b5050565b60007f0000000000000000000000000000000000000000000000000000000000000000905090565b6000600560009054906101000a900473ffffffffffffffffffffffffffffffffffffffff16905090565b60606004805461065f90611464565b80601f016020809104026020016040519081016040528092919081815260200182805461068b90611464565b80156106d85780601f106106ad576101008083540402835291602001916106d8565b820191906000526020600020905b8154815290600101906020018083116106bb57829003601f168201915b5050505050905090565b6000806106ed610871565b905060006106fa82610582565b90508381101561074d578161070e83610582565b856040517fe450d38c000000000000000000000000000000000000000000000000000000008152600401610744939291906114f8565b60405180910390fd5b610758828686610926565b60019250505092915050565b6000600160008473ffffffffffffffffffffffffffffffffffffffff1673ffffffffffffffffffffffffffffffffffffffff16815260200190815260200160002060008373ffffffffffffffffffffffffffffffffffffffff1673ffffffffffffffffffffffffffffffffffffffff16815260200190815260200160002054905092915050565b6107f3610a1a565b600073ffffffffffffffffffffffffffffffffffffffff168173ffffffffffffffffffffffffffffffffffffffff16036108655760006040517f1e4fbdf700000000000000000000000000000000000000000000000000000000815260040161085c91906113da565b60405180910390fd5b61086e81610ba5565b50565b600061087b610c6b565b905090565b61088d8383836001610ce0565b505050565b600061089e8484610764565b90507fffffffffffffffffffffffffffffffffffffffffffffffffffffffffffffffff81146109205781811015610910578281836040517ffb8f41b2000000000000000000000000000000000000000000000000000000008152600401610907939291906114f8565b60405180910390fd5b61091f84848484036000610ce0565b5b50505050565b600073ffffffffffffffffffffffffffffffffffffffff168373ffffffffffffffffffffffffffffffffffffffff16036109985760006040517f96c6fd1e00000000000000000000000000000000000000000000000000000000815260040161098f91906113da565b60405180910390fd5b600073ffffffffffffffffffffffffffffffffffffffff168273ffffffffffffffffffffffffffffffffffffffff1603610a0a5760006040517fec442f05000000000000000000000000000000000000000000000000000000008152600401610a0191906113da565b60405180910390fd5b610a15838383610eb7565b505050565b610a22610871565b73ffffffffffffffffffffffffffffffffffffffff16610a40610626565b73ffffffffffffffffffffffffffffffffffffffff1614610a9f57610a63610871565b6040517f118cdaa7000000000000000000000000000000000000000000000000000000008152600401610a9691906113da565b60405180910390fd5b565b600073ffffffffffffffffffffffffffffffffffffffff168273ffffffffffffffffffffffffffffffffffffffff1603610b135760006040517fec442f05000000000000000000000000000000000000000000000000000000008152600401610b0a91906113da565b60405180910390fd5b610b1f60008383610eb7565b5050565b600073ffffffffffffffffffffffffffffffffffffffff168273ffffffffffffffffffffffffffffffffffffffff1603610b955760006040517f96c6fd1e000000000000000000000000000000000000000000000000000000008152600401610b8c91906113da565b60405180910390fd5b610ba182600083610eb7565b5050565b6000600560009054906101000a900473ffffffffffffffffffffffffffffffffffffffff16905081600560006101000a81548173ffffffffffffffffffffffffffffffffffffffff021916908373ffffffffffffffffffffffffffffffffffffffff1602179055508173ffffffffffffffffffffffffffffffffffffffff168173ffffffffffffffffffffffffffffffffffffffff167f8be0079c531659141344cd1fd0a4f28419497f9722a3daafe3b4186f6b6457e060405160405180910390a35050565b600080600036905090506000610c7f6110dc565b9050610c8a33610543565b8015610c965750808210155b15610cd0576000368284610caa919061152f565b908092610cb99392919061156d565b90610cc491906115ec565b60601c92505050610cdd565b610cd86110eb565b925050505b90565b600073ffffffffffffffffffffffffffffffffffffffff168473ffffffffffffffffffffffffffffffffffffffff1603610d525760006040517fe602df05000000000000000000000000000000000000000000000000000000008152600401610d4991906113da565b60405180910390fd5b600073ffffffffffffffffffffffffffffffffffffffff168373ffffffffffffffffffffffffffffffffffffffff1603610dc45760006040517f94280d62000000000000000000000000000000000000000000000000000000008152600401610dbb91906113da565b60405180910390fd5b81600160008673ffffffffffffffffffffffffffffffffffffffff1673ffffffffffffffffffffffffffffffffffffffff16815260200190815260200160002060008573ffffffffffffffffffffffffffffffffffffffff1673ffffffffffffffffffffffffffffffffffffffff168152602001908152602001600020819055508015610eb1578273ffffffffffffffffffffffffffffffffffffffff168473ffffffffffffffffffffffffffffffffffffffff167f8c5be1e5ebec7d5bd14f71427d1e84f3dd0314c0f7b2291e5b200ac8c7c3b92584604051610ea891906112cc565b60405180910390a35b50505050565b600073ffffffffffffffffffffffffffffffffffffffff168373ffffffffffffffffffffffffffffffffffffffff1603610f09578060026000828254610efd91906114c4565b92505081905550610fdc565b60008060008573ffffffffffffffffffffffffffffffffffffffff1673ffffffffffffffffffffffffffffffffffffffff16815260200190815260200160002054905081811015610f95578381836040517fe450d38c000000000000000000000000000000000000000000000000000000008152600401610f8c939291906114f8565b60405180910390fd5b8181036000808673ffffffffffffffffffffffffffffffffffffffff1673ffffffffffffffffffffffffffffffffffffffff16815260200190815260200160002081905550505b600073ffffffffffffffffffffffffffffffffffffffff168273ffffffffffffffffffffffffffffffffffffffff16036110255780600260008282540392505081905550611072565b806000808473ffffffffffffffffffffffffffffffffffffffff1673ffffffffffffffffffffffffffffffffffffffff168152602001908152602001600020600082825401925050819055505b8173ffffffffffffffffffffffffffffffffffffffff168373ffffffffffffffffffffffffffffffffffffffff167fddf252ad1be2c89b69c2b068fc378daa952ba7f163c4a11628f55a4df523b3ef836040516110cf91906112cc565b60405180910390a3505050565b60006110e66110f3565b905090565b600033905090565b60006014905090565b600081519050919050565b600082825260208201905092915050565b60005b8381101561113657808201518184015260208101905061111b565b60008484015250505050565b6000601f19601f8301169050919050565b600061115e826110fc565b6111688185611107565b9350611178818560208601611118565b61118181611142565b840191505092915050565b600060208201905081810360008301526111a68184611153565b905092915050565b600080fd5b600073ffffffffffffffffffffffffffffffffffffffff82169050919050565b60006111de826111b3565b9050919050565b6111ee816111d3565b81146111f957600080fd5b50565b60008135905061120b816111e5565b92915050565b6000819050919050565b61122481611211565b811461122f57600080fd5b50565b6000813590506112418161121b565b92915050565b6000806040838503121561125e5761125d6111ae565b5b600061126c858286016111fc565b925050602061127d85828601611232565b9150509250929050565b60008115159050919050565b61129c81611287565b82525050565b60006020820190506112b76000830184611293565b92915050565b6112c681611211565b82525050565b60006020820190506112e160008301846112bd565b92915050565b600080600060608486031215611300576112ff6111ae565b5b600061130e868287016111fc565b935050602061131f868287016111fc565b925050604061133086828701611232565b9150509250925092565b600060ff82169050919050565b6113508161133a565b82525050565b600060208201905061136b6000830184611347565b92915050565b600060208284031215611387576113866111ae565b5b600061139584828501611232565b91505092915050565b6000602082840312156113b4576113b36111ae565b5b60006113c2848285016111fc565b91505092915050565b6113d4816111d3565b82525050565b60006020820190506113ef60008301846113cb565b92915050565b6000806040838503121561140c5761140b6111ae565b5b600061141a858286016111fc565b925050602061142b858286016111fc565b9150509250929050565b7f4e487b7100000000000000000000000000000000000000000000000000000000600052602260045260246000fd5b6000600282049050600182168061147c57607f821691505b60208210810361148f5761148e611435565b5b50919050565b7f4e487b7100000000000000000000000000000000000000000000000000000000600052601160045260246000fd5b60006114cf82611211565b91506114da83611211565b92508282019050808211156114f2576114f1611495565b5b92915050565b600060608201905061150d60008301866113cb565b61151a60208301856112bd565b61152760408301846112bd565b949350505050565b600061153a82611211565b915061154583611211565b925082820390508181111561155d5761155c611495565b5b92915050565b600080fd5b600080fd5b6000808585111561158157611580611563565b5b8386111561159257611591611568565b5b6001850283019150848603905094509492505050565b600082905092915050565b60007fffffffffffffffffffffffffffffffffffffffff00000000000000000000000082169050919050565b600082821b905092915050565b60006115f883836115a8565b8261160381356115b3565b925060148210156116435761163e7fffffffffffffffffffffffffffffffffffffffff000000000000000000000000836014036008026115df565b831692505b50509291505056fea2646970667358221220d1277019855b6275be6db68196b621d31a094934bdd8f25ed469525c2c7d46bd64736f6c63430008170033",
  "linkReferences": {},
  "deployedLinkReferences": {}
}